:020000040800F2
:1000000070070020F9010008F91A0008011A000819
:10001000F51A000851170008AB2000080000000086
:10002000000000000000000000000000DD1C0008CF
:100030005517000800000000811B0008251E00085D
:10004000130200081302000813020008130200083C
:10005000130200081302000813020008130200082C
:1000600013020008591700081302000813020008C1
:10007000130200081302000813020008130200080C
:1000800013020008130200081302000813020008FC
:1000900013020008130200081302000813020008EC
:1000A00013020008130200081302000813020008DC
:1000B00013020008130200081302000813020008CC
:1000C00013020008130200081302000813020008BC
:1000D00013020008891E000813020008130200081A
:1000E000130200081302000813020008130200089C
:1000F000130200081302000813020008130200088C
:10010000130200081302000813020008130200087B
:10011000130200081302000813020008130200086B
:10012000130200081302000813020008130200085B
:1001300000F002F800F050F80AA090E8000C8244A9
:100140008344AAF10107DA4501D100F045F8AFF286
:10015000090EBAE80F0013F0010F18BFFB1A43F0A5
:10016000010318473031000050310000103A24BF1D
:1001700078C878C1FAD8520724BF30C830C144BF0C
:1001800004680C607047000000230024002500264E
:10019000103A28BF78C1FBD8520728BF30C148BFEA
:1001A0000B607047662903F01F80642900F0B68059
:1001B000632900F01E84732900F023840020704717
:1001C0001FB500F035FC04000020002102F064FBA4
:1001D000E0601FBD10B510BD00F02EFD1146FFF709
:1001E000EFFF02F053F900F04CFD03B4FFF7F2FF0C
:1001F00003BC01F0B6FF00000948804709480047EA
:10020000FEE7FEE7FEE7FEE7FEE7FEE7FEE7FEE7C6
:10021000FEE7FEE704480549054A064B7047000023
:10022000291E00083101000870010020700700201D
:100230007003002070030020704700000FB40449D1
:1002400010B503AA029800F0E1FB10BC5DF814FBA6
:10025000180000200FB41CB5074B06AA7B44694662
:100260000090059800F0A3FB0020694600F0B2FB67
:100270001CBC5DF814FB00007507000070B5044657
:1002800085690068C10601D5302600E02026C00738
:1002900007D070BDD4E9012130469047206A401C48
:1002A00020626D1EF6D570BD70B504468569007874
:1002B000C00707D170BDD4E9012120209047206AF2
:1002C000401C20626D1EF6D570BD70B50C4605460B
:1002D000012A05D02878800600D5EA69002302E0CB
:1002E000012305E05B1C934202D2E05C0028F9D1B7
:1002F000A869E618C01AA861286A18442862284626
:10030000FFF7BCFF04E0D5E9012114F8010B904789
:10031000B442F8D32846FFF7C7FF70BD2DE9F0417E
:100320000646002410687529314616A510D0AFF393
:100330000080002802DA404213A507E031688A07EE
:1003400001D512A502E0490704D511A5012401E059
:10035000AFF3008000210A2206F1240709E0B0FB78
:10036000F2FCB0FBF2F302FB1C003030785418466C
:10037000491C0028F3D123462A463046BDE8F04107
:1003800000F0A8B8000000002D0000002B000000C5
:10039000200000002DE9F05F894604464FF0000A76
:1003A000DFF824B1FB44C0F820A02046E16888476C
:1003B00000287DD0252806D0D4E901219047206A65
:1003C000401C2062F1E700255F462046E16888472F
:1003D0002028064607DB312E05D2B81910F8200C6C
:1003E00008B10543F1E7A80701D525F00405C4F8D5
:1003F0001CA00027C4F818A02A2E09D0304601F00E
:10040000A9FE38B304EB8708303EC8F8186019E03D
:1004100059F8041B204604EB87029161E168884784
:10042000012F064618D1E069002820DA25F02005C2
:100430001DE0D8F8180000EB800006EB40003038D3
:10044000C8F818002046E1688847064601F082FE99
:100450000028EED1012F0AD02E2E08D12046E168C7
:1004600088477F1C0646022F45F02005C4DBA069A3
:10047000002803DA404245F00105A061E80701D0F9
:1004800025F01005A6B1A6F14100192802D82036A2
:1004900045F400654A463146204625604D46FFF743
:1004A00081FE60B1012807D0ED1D25F0070000E0B6
:1004B00007E000F1080978E705F1040975E730461F
:1004C0007AE7206ABDE8F09F442E0000704770472D
:1004D000704770472DE9F0470D469946924604460D
:1004E00000F124080168880604D5E06921F01001B4
:1004F000216000E00120A84201DD471B00E0002749
:10050000A1697A1902EB0900081AA0612078C006D7
:1005100002D42046FFF7B2FE002608E0D4E901210C
:100520001AF806009047206A401C761C20624E454F
:10053000F4DB2078C0060AD52046FFF79FFE06E0D0
:10054000D4E9012130209047206A401C2062381EE7
:10055000A7F10107F4DC07E0D4E9012118F8050050
:100560009047206A401C2062281EA5F10105F3DC9B
:100570002046FFF799FE2078000602D50220BDE84C
:10058000F0870120FBE770472DE9FF4F0C461E4620
:100590004FF0FF378BB0D2E90001DDF860800A90A0
:1005A0008A46C1F30A5505B93D46002108464FF079
:1005B0000000BAF1000F00F4400005DA00EB800003
:1005C0004FF4400101EA50004FEA9059B9F1010F90
:1005D00000DDB9460A9850EA4A000ED044F61050A1
:1005E000A5F2FF3545432F14B8F1000F1ED0754218
:1005F000291E1EDDC9F100021CE0B8F1010F4FF009
:10060000000001D0302103E0F24305E02154401CFA
:10061000B042FBDB30460022002121540B99C1F887
:100620000880C1E900200FB0BDE8F08FBD1B6D1C34
:10063000DEE74A4600DA694206A800F083FA06AB14
:1006400093E8070003AB83E8070050460A9900F0DF
:1006500061FB8DE80700A0F500501F38009003985B
:10066000002D0ADD42F21F014A460844002303A977
:100670000390684600F0CAFD09E0A0F500504A4624
:100680001F38002303A90390684600F0D4FD8DE8CD
:1006900007000004000C03D04FF0FF30410800E0D9
:1006A0001046B8F1000F03D00022009215461EE05C
:1006B000751E05D400F0C0F9303262556D1EF9D5B3
:1006C000B3460122084302D000227F1C04E02078B8
:1006D000302801D100227F1E002A099784D01DE016
:1006E000112D07DA00F0A8F9303262556D1C50EA7E
:1006F0000102F5D1084302D00098C8B10EE00021F4
:10070000681E05E0235C625C63542254401E491C51
:100710008142F7DBAB46A81B401E0990002004F87D
:100720000B000B98099AC0F80880C0E9002B7AE703
:1007300011264FF0000857E72DE9F04F8846044690
:10074000D21D22F0070191B0D1E90001CDE90A01E3
:1007500001F0ECFC02460B98C00F01D02D2007E001
:100760002068810701D52B2002E0202101EAC0008A
:10077000032A099001D0072A05DB0346414620469B
:1007800000F0A0F90BE12078800601D5E06900E0D7
:100790000620B8F1650F814606D0B8F1660F18D073
:1007A000B8F1670F70D131E00020B9F1110F00905E
:1007B00001DB112301E009F101030AAA01A90CA838
:1007C000FFF7E2FEDDE90C70002609F10105834622
:1007D00047E001204B4600904FF000470AAA01A9CC
:1007E0000CA8FFF7D1FEDDE90DB00C995D4600269F
:1007F00010B909F101000D18B9EB050003D4C0F1DF
:10080000FF3609F10105A5EB09002BE0B9F1010F55
:1008100001DA4FF001090020B9F1110F00904846AC
:1008200001DD112300E003460AAA01A90CA8FFF785
:10083000ABFEDDE90C704D460026834620780007AC
:100840000AD4AB4500DA5D4601A8012D04DD41194B
:1008500011F8011C302907D04F4502DA17F1040FB7
:1008600004DA012082460FE06D1EEEE7002F02DC65
:10087000ED1B3E4403E0781CA84200DD7D1CB81B44
:1008800000F1010A4FF000472078000703D4AA4581
:1008900001DB4FF0FF3A0021B7F1004F0DF14308A3
:1008A0008DF8431024D002202B23002F01DA7F4241
:1008B0002D230A21021EA0F1010000DC5FB197FB8D
:1008C000F1FC97FBF1F201FB1C7C17460CF1300C9C
:1008D00008F801CDEEE7A8F10100037021880905B1
:1008E00001D5452100E06521A0F1010800F8011CB7
:1008F00009980FA9A1EB0807FF1D00B101204119BC
:1009000001EBEA70A1693844081A401EA061207802
:10091000C00602D42046FFF7B1FC099828B1D4E9FB
:1009200001219047206A401C20622078C00622D511
:100930002046FFF7A3FC1EE0002E04DBB34502DDDA
:1009400001A8805D00E03020D4E901219047206AB1
:10095000401C2062761CAAF101005FEA000A0AD15D
:1009600000F066F8C0680168405CD4E90121904756
:10097000206A401C2062281EA5F10105DCDC07E08E
:10098000D4E9012118F8010B9047206A401C20622D
:10099000381EA7F10107F3DC2046FFF785FC032092
:1009A00011B041E601694A1C02610878704700B540
:1009B0008FB0CDE901310021059105497944CDE998
:1009C000031011466846FFF7E5FC0FB000BD0000BC
:1009D000E5FFFFFF0A6802F8010B0A60704710B5D7
:1009E000436913B1AFF3008001E0FFF76EFC012013
:1009F00010BD127800F124010A7000224A70012211
:100A0000EDE711684FF0FF32E9E70000074B70B5E2
:100A10000D467B44FFF7CBFF0446284600F004F95F
:100A200010B14FF0FF3070BD204670BD331A00008A
:100A3000004870472C01002030B5B0F10A024FEA9F
:100A4000900E71F100034EEA817EB0EB0E0061EB77
:100A500091014FEA101E4EEA017E10EB0E0041EBB1
:100A600011114FEA102E4EEA016E10EB0E0041EB11
:100A700011214FEA104E4EEA014E10EB0E0041EBF1
:100A80001141401841F100014FEAD00040EA4170A5
:100A90004FEAD10110EB80054FEA810444EA9074DB
:100AA00044EB01046D1944EB0404521BA3414FF0C5
:100AB000000348BF0A3200D530BD401C41F100019F
:100AC00030BD00002DE9F0411F46044603260168B1
:100AD000072A01F4006004DB08B116A505E016A59D
:100AE00003E008B115A500E015A521F01000206075
:100AF000A069C01EA0610FB1401EA0612046FFF793
:100B0000BDFB4FB1D4E9012138469047206A401C13
:100B10002062C01C206206E0206AFAE7D4E90121C5
:100B200015F8010B9047761EF8D22046FFF7BCFB64
:100B3000BDE8F0814E414E006E616E00494E4600A8
:100B4000696E66002DE9F047814616468AB0354841
:100B500078440DC88DE80D0032487844801C03AC01
:100B60000DC884E80D0041F69B300844372190FB06
:100B7000F1F290FBF1F5A5F1800501FB12041B3C9D
:100B800002D56442012000E00020DFF898A08046F2
:100B90000027FA44AAF1BE0A0EE0E0070AD0324666
:100BA000684607EB470101230AEB810100F043FB94
:100BB0008DE8070064107F1C002CEED1194F7F4494
:100BC000AE3F19E0E80715D007EB04100DF1180A45
:100BD00090E80E008AE80E00C068F04201D1981932
:100BE00008903246012306A903A800F024FB03ABBA
:100BF00083E807006D10641C002DE3D14FF0010362
:100C000032466946B8F1000F03A802D000F0FEFAA0
:100C100001E000F010FBC9E90001C9F808200AB0A2
:100C2000BDE8F08728270000007B00F080007047B7
:100C3000004870470C0100207546FFF7F9FFAE46EB
:100C400005006946534620F00700854618B020B5D8
:100C5000FFF7E0FABDE820404FF000064FF0000734
:100C60004FF000084FF0000B21F00701AC46ACE854
:100C7000C009ACE8C009ACE8C009ACE8C0098D46C1
:100C8000704710B50446AFF300802046BDE8104021
:100C9000FFF7ABBA4FF0013C50F8042B51F8043B7E
:100CA0009A4221D1A2EB0C03934313EACC1317D140
:100CB00050F8042B51F8043B9A4215D1A2EB0C03D7
:100CC000934313EACC130BD150F8042B51F8043B97
:100CD0009A4209D1A2EB0C03934313EACC13DBD065
:100CE0004FF00000704700BFD01A01BAB1FA81F18D
:100CF00001F0180122FA01F0CB40C1F12001DBB272
:100D0000C0B2C01A2CFA01F3D11A914311EAC311EF
:100D1000E6D170475FEA400C08BF91F0000F4FEA40
:100D20008C234FEAC12243EA51514FEA1C5018BFAD
:100D300000F5F0404FEA300018BF41F000415FEA93
:100D40006C5C00F02980BCF1FF3F08BF40F08040A0
:100D50007047130C06BF12044FF0100C4FF0000C3C
:100D6000130E04BF12020CF1080C130F04BF120182
:100D70000CF1040C930F04BF92000CF1020CD30F82
:100D800004BF52000CF1010C11464FF00002A0F11B
:100D90001F00A0EB0C00704711F0004F08BF704718
:100DA00031F000413FF4D5AF0B0C06BF09044FF002
:100DB000100C4FF0000C0B0E04BF09020CF1080CD4
:100DC0000B0F04BF09010CF1040C8B0F04BF890049
:100DD0000CF1020CCB0F04BF49000CF1010CCCF15B
:100DE0002003A0EB0C0022FA03F302FA0CF241EA12
:100DF000030100F10100704720F07F4C80EA0300FE
:100E000023F07F47ACEB070303F57C5300F0004071
:100E100003F1FF032DE980494FEA154B09B44FEA6E
:100E2000144325EA0B4E24EA03480FF2042606EB8E
:100E3000132749083E785FEA320203FB0667C7F5CD
:100E4000000707FB06F64FEA54374FEAD64606F18D
:100E5000020607FB066CCCF1005C4FEA1C472CEA4B
:100E6000074C07FB06F40CFB06F504EB15464FEAAE
:100E7000961634BF00204FF000404FEAD13706FBF2
:100E800007FC4FEA1C4C0CFB0BF7D21B03FB0CF7C7
:100E900061EB07010CFB0EF7B0EB074072EB17425A
:100EA0000CFB08F734BFA2EB0742B2EB074261EB41
:100EB00017414FEA0C444FEA910706FB07FC4FEA43
:100EC0001C4C0CFB0BF7B0EBC74072EB573203FB2B
:100ED0000CF734BFA2EBC742B2EBC74261EB57310C
:100EE0000CFB0EF7B0EBC70072EB57720CFB08F768
:100EF00034BFA2EBC702B2EBC70261EB5771039F8D
:100F00004FEA816141EA921104EBCC044FEAD137F8
:100F10004FEA826206FB07FC42EA90124FEA8060C9
:100F20004FEA1C4C0CFB0BF7D21B03FB0CF761EBDD
:100F300007010CFB0EF7B0EB074072EB17420CFBFE
:100F400008F734BFA2EB0742B2EB074261EB17414F
:100F50004FEA8C554FEA910704EB9C2406FB07FCF3
:100F60004FEA1C4C0CFB0BF7B0EBC74072EB57324F
:100F700003FB0CF734BFA2EBC742B2EBC74261EBF5
:100F800057310CFB0EF7B0EBC70072EB57720CFB3E
:100F900008F734BFA2EBC702B2EBC70261EB57718F
:100FA00015EB4C254FEA816141EA92114FEA8262CA
:100FB0004FEAD13742EA901206FB07FC44F10004E5
:100FC0004FEA80604FEA1C4C0CFB0BF7D21B03FB73
:100FD0000CF761EB07010CFB0EF7B0EB074072EB6F
:100FE00017420CFB08F734BFA2EB0742B2EB0742F3
:100FF00061EB174115EB1C154FEA813141EA924133
:101000004FEA823242EA90424FEA80304FEA0C7651
:1010100044F1000448EA03434EEA0B484FF0000E47
:10102000B2EB080C71EB030724BF624639464EEB66
:101030000E0E4FF0000B0018524149414BEB0B0BC9
:10104000B2EB080C71EB03077BF1000B24BF624687
:1010500039464EEB0E0E4FF0000B0018524149413D
:101060004BEB0B0BB2EB080C71EB03077BF1000BA6
:1010700024BF624639464EEB0E0E51EA020718BFF6
:1010800046F0010616EB0E7655F1000254F1000110
:1010900003D5BDE88901BDE80088BDE88901BDE848
:1010A0000048B619524141EB0101A3F10103704719
:1010B00080807F7E7D7C7B7A797877767675747395
:1010C000727171706F6E6E6D6C6C6B6A6A69686854
:1010D000676666656464636362616160605F5F5EEA
:1010E0005E5D5D5C5C5B5B5A5A5959585857575660
:1010F00056555555545453535252525151505050C5
:101100004F4F4F4E4E4D4D4D4C4C4C4B4B4B4A4A16
:101110004A4949494848484747474746464645455A
:101120004544444444434343434242424241414193
:10113000002B9C4630D477002BD01CB54FEA3707E4
:1011400003B44FF010004FF01001BAF1000F06D0B9
:10115000BCF1000FDCBF40F0080040F008014FF088
:1011600000000FBCBDE810400BF1010BBBF1010FFB
:1011700008BF5FEA170722BF12F1010211F1010156
:101180004FF0004143F1000300F0004043EA00004B
:101190007047F9D35708D0E746EA064613F1400FE7
:1011A0004FEA16461FDD13F1200FDFBF16430A4634
:1011B000002120335B42BED0C3F1200746EA064639
:1011C00002FA07F74FEA164646EA0706C3F1200778
:1011D00022FA03F201FA07F721FA03F14FF00003B4
:1011E00042EA0702A7E746EA020646EA06464FEA4F
:1011F000164646EA0106BCBF46EA0646360C4FF0E4
:1012000000034FF000024FF0000194E72DE9804CFD
:101210009A46934670B491E8380007C831EA400C0A
:1012200048BF34EA430C03D5FFF7E6FDFFF780FF24
:10123000F0BCBDE8008C2DE9804C9A46934670B412
:1012400091E8380007C810F0804F08BF13F0804FB6
:1012500003D100F005F8FFF76BFFF0BCBDE8008C90
:1012600020F07F4780EA030023F07F4C07EB0C035C
:10127000A3F57C5300F00040A3F1FE0392F0000FB1
:1012800000F0B38095F0000F00F077802DE9014960
:101290004FEA11404FEA144621EA004800FB06FCE1
:1012A00024EA064708FB06F607FB08F800FB07F7E9
:1012B00018EB06484CEB164C4FEA124B18EB07485C
:1012C0004FEA15464CEB174022EA0B4E0BFB06FC8F
:1012D00025EA06470EFB06F607FB0EFE0BFB07F79B
:1012E0001EEB064E4CEB164C4FF000061EEB074E65
:1012F0004CEB174B18EB0B0840F1000018EB0E0BF2
:1013000058EB000840F100008F1A4FF000013CBF7D
:10131000C943661B14BFB5EB040C00213CBFC94395
:10132000F61B4FEA17444EEA8E0E27EA04454FEAB1
:101330001C4704FB07622CEA074C05FB07F70CFB74
:1013400005F604FB0CFC16EB074642EB174216EBC6
:101350000C4642EB1C421BEB060658EB02024141D5
:1013600046EA9E0601D5BDE80189B619524141EB16
:101370000101A3F10103BDE801894FEA14454FEAD9
:10138000114724EA054621EA074C05FB07F406FB52
:1013900007F70CFB06F105FB0CFC11EB074144EBD6
:1013A00017444FEA124711EB0C4144EB1C4422EA6C
:1013B000074C05FB07F206FB07F70CFB06F605FBDF
:1013C0000CFC16EB074642EB174216EB0C4642EBC1
:1013D0001C456A1854F1000148BF7047B6195241C4
:1013E00041EB0101A3F10103704795F0000F37D0E5
:1013F0004FEA11424FEA144721EA024624EA074C19
:1014000002FB07F106FB07F70CFB06F402FB0CFCE2
:1014100014EB074441EB17414FEA154714EB0C441A
:1014200041EB1C4125EA074C02FB07F506FB07F7D9
:101430000CFB06F602FB0CFC16EB074645EB1745CA
:1014400016EB0C4645EB1C42121951F1000148BF46
:101450007047B619524141EB0101A3F101037047F6
:101460004FEA14454FEA114724EA054621EA074CA2
:1014700005FB07F106FB07F70CFB06F24FF0000631
:1014800005FB0CFC12EB074241EB174112EB0C423F
:1014900051EB1C4148BF7047921841EB0101A3F189
:1014A0000103704721B1826842F00102826003E0CB
:1014B000826822F0010282607047000010B5044685
:1014C0001248844208D10121401500F077FB002129
:1014D000601500F073FB17E00D48844208D101212C
:1014E000001500F06BFB0021201500F067FB0BE0FE
:1014F0000848844208D10121C80300F05FFB0021A5
:101500004FF4004000F05AFB10BD000000240140E1
:1015100000280140003C0140014600208A6802F09A
:1015200004020AB1012000E0002070470146C86CA7
:1015300080B270470246002013680B400BB10120B7
:1015400000E000207047014600208A6802F008028F
:101550000AB1012000E000207047000030B50246CB
:101560000020002350680F4C20400D790C6844EA9D
:1015700005242043506090680B4C2040D1E9025470
:101580002C434D7944EA450420439060D06A20F40E
:1015900070000C7C641EE4B2234340EA0350D06226
:1015A00030BD0000FFFEF0FFFDF7F1FFF0B504468F
:1015B0000D4600200021092D11DDE068A5F10A0685
:1015C00006EB4607072606FA07F18843A5F10A0647
:1015D00006EB460603FA06F10843E0600CE02069DA
:1015E00005EB4507072606FA07F1884305EB450694
:1015F00003FA06F108432061072A0FDA606B561ED2
:1016000006EB86071F2606FA07F18843561E06EBEF
:10161000860605FA06F10843606322E00D2A0FDA18
:10162000206BD61F06EB86071F2606FA07F18843B4
:10163000D61F06EB860605FA06F10843206310E084
:10164000E06AA2F10D0606EB86071F2606FA07F1EF
:101650008843A2F10D0606EB860605FA06F108435B
:10166000E062F0BD816841F008018160704721B1FE
:10167000826842F4A002826003E0826822F4A00241
:1016800082607047816841F004018160704700000A
:1016900000B587B001214FF4027000F07FFA4FF4DB
:1016A000004000F06FFA0120ADF8040000208DF832
:1016B000070001A9174800F063F81748FFF7FEFE7E
:1016C000002002908DF80C008DF80D004FF4602082
:1016D00004900020059001208DF8180002A90E4802
:1016E000FFF73CFF01210C48FFF7DCFE0A48FFF73B
:1016F000B9FF00BF0848FFF726FF0028FAD10648C7
:10170000FFF7C0FF00BF0448FFF706FF0028FAD12B
:1017100007B000BD000C01400024014008B50121C4
:10172000042000F03BFA10208DF803000002ADF811
:10173000000003208DF802006946044800F020F8FC
:101740004FF48051014800F0AFF808BD0008014097
:1017500000BFFEE77047000010B50A2000F06CFDE6
:10176000012003490870082000F004F810BD0000B3
:101770003200002001490860704700001404014055
:101780002DE9F04102460025002600200023002418
:10179000002791F803C00CF00F0591F803C00CF07E
:1017A000100CBCF1000F03D091F802C04CEA050503
:1017B00091F800C0BCF1000F31D0146800202BE07C
:1017C0004FF0010C0CFA00F3B1F800C00CEA03066C
:1017D0009E4220D183004FF00F0C0CFA03F7BC435C
:1017E00005FA03FC4CEA040491F803C0BCF1280F8D
:1017F00006D14FF0010C0CFA00FCC2F814C00AE04C
:1018000091F803C0BCF1480F05D14FF0010C0CFA60
:1018100000FCC2F810C0401C0828D1D31460B1F8F5
:1018200000C0BCF1FF0F34DD546800202EE000F151
:10183000080C4FF0010808FA0CF3B1F800C00CEAEC
:1018400003069E4221D183004FF00F0C0CFA03F7E0
:10185000BC4305FA03FC4CEA040491F803C0BCF154
:10186000280F05D100F1080C08FA0CF8C2F8148012
:1018700091F803C0BCF1480F07D100F1080C4FF0FC
:10188000010808FA0CF8C2F81080401C0828CED3D2
:101890005460BDE8F0810246002093680B400BB114
:1018A000012000E0002070474161704701617047EE
:1018B00010B504460723012221460948FFF776FEAA
:1018C00001210748FFF7D3FE00BF02210448FFF7BC
:1018D00031FE0028F9D00248FFF728FE10BD0000B5
:1018E000002401402DE9F04107460C460025002662
:1018F00008E03846FFF7DCFF0544052000F09CFCBB
:10190000701CC6B2A642F4DBB5FBF4F080B2BDE8B1
:10191000F081000070B500F02BF81249086008460D
:101920000068D0B10846006801F000FC05460E4989
:1019300001F01AFB044601F0D9FB0A490860084689
:10194000006844F62061884203D9012007490870E5
:1019500006E000200549087002E000200149086007
:1019600070BD0000380000200000D7434000002078
:1019700070B5012000F028FF052000F05DFC01207B
:101980001D49086000F07EFC00201C49C1F8A00140
:10199000002400F019FF052000F04EFC00BF16489F
:1019A000803800680028FAD1002514E0012012498F
:1019B0000C390860640000F065FC00200F49C1F894
:1019C000A0010D488038006800B1641C012000F0BF
:1019D00059FC681CC5B2182DE8DB012006490C39FA
:1019E000086084F4000400F04DFC00200349C1F8B5
:1019F000A001204670BD0000AC0121420000214240
:101A000000BFFEE708B50121042000F0C7F84FF43D
:101A10008070ADF8000010208DF8030003208DF8D1
:101A2000020069460948FFF7ABFE4FF40060ADF8CD
:101A3000000048208DF8030069460448FFF7A0FE27
:101A40004FF480710148FFF72FFF08BD00080140E7
:101A500008B501211C2000F0A1F840F2FF10ADF8FC
:101A6000000010208DF8030003208DF80200694665
:101A70000A48FFF785FE40F2FF110848FFF716FFFE
:101A80004FF46040ADF8000069460548FFF778FE66
:101A90004FF460410248FFF709FF08BD000801400C
:101AA0000010014010B50120104908600A2000F024
:101AB000C3FB00200E49C1F8A0010A2000F0BCFBC6
:101AC00001200A4908600A2000F0B6FB302000F02F
:101AD000EFFA062000F0ECFA012000F0E9FA0C2001
:101AE00000F0E6FA022000F0E3FA10BDA001214266
:101AF0000000214200BFFEE77047000070B50021E2
:101B000000230F22C47804B3154C246804F4E06465
:101B1000C4F5E064210AC1F10403CA40447804FA20
:101B200003F184781440214309010E4C0678A15535
:101B3000047804F01F050124AC4005786D11AD0058
:101B400005F1E025C5F8004109E0047804F01F051F
:101B50000124AC40044D0678761145F8264070BD4E
:101B60000CED00E000E400E080E100E00249014308
:101B7000024A1160704700000000FA050CED00E019
:101B80007047000001460020034A506820F440409E
:101B900008435060704700000010024029B1064A17
:101BA00092690243044B9A6104E0034A92698243BA
:101BB000014B9A61704700000010024029B1064AAB
:101BC000D2680243044BDA6004E0034AD2688243DD
:101BD000014BDA60704700000010024030B5002170
:101BE0000022002400232D4D6D6805F00C0121B169
:101BF000042905D0082923D105E0294D056022E0FC
:101C0000274D05601FE0254D6D6805F47012234DCA
:101C10006D6805F48034022505EB92421CB9214D14
:101C2000554305600BE01D4D6D6805F400351DB191
:101C30001C4D5543056002E0194D5543056002E017
:101C4000174D056000BF00BF144D6D6805F0F00131
:101C50000909154D6B5C0568DD4045600F4D6D68E9
:101C600005F4E061090A104D6B5C4568DD40856054
:101C70000A4D6D6805F46051C90A0B4D6B5C4568EF
:101C8000DD40C560054D6D6805F44041890B074D89
:101C90006B5CC568B5FBF3F5056130BD0010024013
:101CA00000127A0000093D001E0000202E000020D6
:101CB00008B501210820FFF771FF2020ADF80000D2
:101CC00048208DF8030003208DF802006946024881
:101CD000FFF756FD08BD0000000C0140704710B52D
:101CE00000F002F810BD00000CB50020019000903B
:101CF0003348006840F480303149086000BF304804
:101D0000006800F4003000900198401C0190009899
:101D100018B90198B0F5A06FF1D12948006800F416
:101D2000003010B10120009001E0002000900098E8
:101D3000012843D12348006840F010002149086081
:101D40000846006820F0030008600846006840F07C
:101D5000020008601A48406819494860084640680F
:101D600048600846406840F4806048600846406823
:101D700020F47C1048600846406840F4E810486051
:101D80000846006840F08070086000BF0C4800689A
:101D900000F000700028F9D00948406820F00300E6
:101DA000074948600846406840F00200486000BFAC
:101DB0000348406800F00C000828F9D10CBD000071
:101DC00000100240002002402DE9F04107460D4678
:101DD0001646384600F06CF900240BE015F81400A4
:101DE00000F088F9012101EB4401685C00F082F900
:101DF000601CC4B2B442F1DBBDE8F081042808D114
:101E00004FF0E021096941F004014FF0E022116137
:101E100007E04FF0E021096921F004014FF0E022D2
:101E2000116170477047000010B51348006840F01A
:101E300001001149086008464068104908400E49F1
:101E40004860084600680E4908400B49086008468B
:101E5000006820F4802008600846406820F4FE00F6
:101E600048604FF41F008860FFF739FF4FF00060B3
:101E70000449086010BD0000001002400000FFF897
:101E8000FFFFF6FE08ED00E010B540F225511D48B9
:101E900000F04AF810B31B4800F002F9C4B21A4827
:101EA000008800F40040C8B91748008800F480405A
:101EB00060B10A2C03D000201349088020E01248AA
:101EC000008840F400401049088019E00D2C06D12C
:101ED0000D48008840F480400B49088010E00A4813
:101EE0000088C0F30D0009490C5407480088401CC5
:101EF0000549088008460088C72801DD00200880C1
:101F000010BD0000003801401C00002044000020EB
:101F100021B1828942F40052828104E082894DF627
:101F2000FF731A408281704770B502460024002377
:101F30000025002040F66A16B14200D100BFC1F36F
:101F4000421501F01F03012606FA03F3012D02D109
:101F50009689334006E0022D02D1168A334001E013
:101F6000968A33400C12012606FA04F4168834408F
:101F700013B10CB1012000E0002070BDF0B50346A4
:101F8000002400260025002040F66A17B94200D13F
:101F900000BF1846C1F3421401F01F06012707FADB
:101FA00006F5012C01D10C3004E0022C01D11030D7
:101FB00000E014301AB107682F43076002E0076899
:101FC000AF430760F0BD00002DE9F04786B005463D
:101FD0000E460024A24600BFA1460027B08900B1EA
:101FE00000BF2F462C8A4CF6FF700440F088044353
:101FF0002C82AC894EF6F3100440B0883189084336
:10200000718908430443AC81AC8A4FF6FF40044019
:10201000B0890443AC8201A8FFF7E0FD1F48874266
:1020200002D1DDF810A001E0DDF80CA0A88900F4D1
:10203000004040B10AEBCA0000EB0A1031684900C9
:10204000B0FBF1F807E00AEBCA0000EB0A103168B8
:102050008900B0FBF1F86420B8FBF0F0040120091E
:10206000642101FB1089A88900F4004040B13220AE
:1020700000EBC900B0FBF1F000F00700044308E0FA
:10208000322000EB09106421B0FBF1F000F00F00EA
:1020900004432C8106B0BDE8F08700000038014001
:1020A00001468888C0F30800704700BFFEE70000C3
:1020B00010B5044600200C49086001200B49C1F806
:1020C000B80100200849091D08600A2000F0B4F892
:1020D00001200649C1F8BC010548046000200249FE
:1020E0000831086010BD0000B40122420000224205
:1020F0000C08014010B50446012009490860002081
:102100000849C1F8B8010A2000F096F801200549F5
:10211000C1F8BC01044804600020C1F8BC0110BD36
:10212000B4012242000022420C080140490050EA5A
:10213000C12018BF04204A0D18BF40F0010040F232
:10214000FF72B2EB515F08BF40F00200012808BFE8
:102150000520704730380A2801D20120704700203E
:102160007047014600BF704710B50748006818B9AE
:1021700000200649087010BD022205A19020FFF73B
:1021800023FE0120F7E700001481214232000020E5
:10219000B5C8B4FDD6D0000010B5FFF7BBFB0D48A5
:1021A000007801280AD101030B48FFF77FFB0422C6
:1021B0000AA19820FFF708FE012010BD04220AA101
:1021C0009820FFF701FE4FF480510348FFF76CFBA6
:1021D0000020F2E74000002000080140B5E7CCDD18
:1021E000B3ACD6D800000000B5E7CCDDD4CBD0D05E
:1021F0000000000010B56FF00400FFF7FFFD0A4873
:1022000000680A49B0FBF1F00949087008460078F7
:1022100000EB4001C1EBC0104FF6FF7101EAC000B6
:102220000449088010BD00000000002000127A0060
:1022300014000020160000200146114A12884A436B
:102240004FF0E0235A6100229A611A46126942F067
:1022500001021A6100BF4FF0E022106900F0010294
:102260001AB100F48032002AF5D04FF0E022126952
:1022700022F001024FF0E0231A6100229A617047B8
:10228000160000200146114A12784A434FF0E0231D
:102290005A6100229A611A46126942F001021A61DB
:1022A00000BF4FF0E022106900F001021AB100F403
:1022B0008032002AF5D04FF0E022126922F00102AC
:1022C0004FF0E0231A6100229A6170471400002049
:1022D00008B501210820FFF761FC4FF48060ADF8DC
:1022E000000003208DF8020004208DF803006946E9
:1022F0000148FFF745FA08BD000C014008B501216F
:102300000820FFF74BFC4FF48060ADF8000003207D
:102310008DF8020010208DF8030069460148FFF790
:102320002FFA08BD000C014010B500BF4FF48061CA
:102330000D48FFF7B0FA0028F8D02820FFF7A2FFD9
:102340004FF480610848FFF7A6FA012809D100BFC1
:102350004FF480610448FFF79EFA0128F8D001206D
:1023600010BD0020FCE70000000C014070B5002407
:10237000002508E04FF6FF7000EA4404FFF7D4FFA1
:102380000443681C85B2082DF4DB204670BD0000B4
:1023900070B50446002500F033F800F04BF858BB48
:1023A00000BF00F047F80028FBD000BF00F042F863
:1023B0000128FBD0002504E0FFF7D8FF6055681C1A
:1023C00085B2052DF8DB00BF00F034F80028FBD003
:1023D000FFF794FF4FF480610848FFF767FA207811
:1023E00061780844A1780844E1780844C6B22079AD
:1023F000B04201D0012070BD0020FCE7000C01407C
:1024000010B5FFF77BFF4FF480610948FFF74CFAE6
:1024100044F63820FFF736FF4FF480610448FFF799
:1024200045FA1E20FFF72EFFFFF752FF10BD0000F8
:10243000000C014010B54FF480610248FFF72BFA01
:1024400010BD0000000C014000BF054A128802F0D8
:102450004002002AF9D0C2B2014B1B1D1A807047FE
:10246000003801402DE9F04104460D4617461E464E
:102470003A4605A12046FDF7EDFE324621462846A4
:10248000FFF7A2FCBDE8F0812564000092B00126B0
:1024900001201090AFA000680A90AFA000680990DA
:1024A000AEA000680890FFF7BFFCFFF7A3FE4FF453
:1024B000A060FFF75BFBFFF7FBFB4FF4E13000F0A0
:1024C0009BF9FFF7C5FAFFF729F9FFF79BFAFFF72A
:1024D000E9FAFFF7DDF80522A1A18020FFF774FCDF
:1024E0000222A2A19420FFF76FFC0122A1A18A2061
:1024F000FFF76AFC0122A0A18E20FFF765FC28E10E
:102500004FF47A70FFF798FE4FF47A70FFF794FE5D
:102510000A210820FFF7E6F91FFA80F94A4697A139
:102520000BA8FDF797FE02220BA99620FFF74CFCA3
:1025300006A8FFF72DFF002845D19DF8190000F0EF
:10254000C1FB00228F4BCDE9000100F063FACDE919
:1025500004019DF8180000F0B5FBCDE90201DDE9AA
:10256000042300F0AFF904460D469DF81B0000F06F
:10257000A9FB0022834BCDE9000100F04BFACDE925
:1025800004019DF81A0000F09DFBCDE90201DDE990
:10259000042300F097F9074688463A4643467AA155
:1025A0000BA8FDF757FE02220BA98820FFF70CFCB1
:1025B00022462B4674A10BA8FDF74CFE02220BA964
:1025C0008C20FFF701FC72480078012802D14FF0FF
:1025D000590A01E04FF04E0A0123324685210BA82B
:1025E000FFF740FF012208A98620FFF7EDFB0FF25D
:1025F000A41B3A46434669A08DE8300EFDF71EFE47
:10260000109800284ED0062E4CDAFFF7ADFD00B131
:102610009FE0032266A19020FFF7D6FB4FF47A706B
:10262000FFF70AFE4FF47A70FFF706FEFFF79CFDF6
:1026300000B18EE04FF47A70FFF7FEFD4FF47A7030
:10264000FFF7FAFD03225CA19020FFF7BDFB0FF21C
:10265000701B3A46434651A08DE8300EFDF7EEFD63
:102660004FF47A70FFF7E8FDFFF796FD00B170E0D8
:1026700001220AA98620FFF7A7FB4FF47A70FFF723
:10268000DBFD4FF47A70FFF7D7FD4FF47A70FFF758
:10269000D3FD701CC6B20123324685210BA8FFF77B
:1026A000E1FE01E000201090109800284ED1012E8C
:1026B0004CDDFFF759FD00B14BE003223CA1902017
:1026C000FFF782FB4FF47A70FFF7B6FD4FF47A7094
:1026D000FFF7B2FDFFF748FD00B13AE04FF47A7022
:1026E000FFF7AAFD4FF47A70FFF7A6FD032232A18F
:1026F0009020FFF769FB0FF2C80B3A46434627A02C
:102700008DE8300EFDF79AFD4FF47A70FFF794FDD7
:10271000FFF742FD00B11CE0012209A98620FFF766
:1027200053FB4FF47A70FFF787FD4FF47A70FFF791
:1027300083FD4FF47A70FFF77FFD701EC6B2012350
:10274000324685210BA8FFF78DFE01E00120109095
:1027500000BFD5E6A1FC0000A1FD0000A3AD000074
:10276000B5B1C7B0C2A5B2E33A0000004D51323A4C
:1027700000000000A1E600002500000025303364C1
:102780000000000000002440252E316600000000FB
:10279000400000204F50454E0000000025322E31F1
:1027A0006625322E3166253033642563257300009B
:1027B000B9D8C3C5D6D00000D2D1B9D8C3C500009E
:1027C000434C4F534500000038B504464FF40060B9
:1027D000ADF8000003208DF802001CB110208DF828
:1027E000030002E048208DF8030069460148FEF727
:1027F000C7FF38BD0008014010B586B0044601216E
:1028000044F20400FFF7CAF94FF40070ADF8140069
:1028100003208DF8160018208DF8170005A91C4814
:10282000FEF7AEFF4FF48060ADF8140004208DF881
:10283000170005A91648FEF7A3FF25208DF8000014
:1028400003208DF801008DF8020001208DF80300AF
:102850006846FFF753F901940020ADF80800ADF881
:102860000A00ADF80C00ADF810000C20ADF80E0019
:1028700001A90848FFF7A8FB012240F225510548AD
:10288000FFF77CFB01210348FFF742FB06B010BDB8
:10289000000801400038014010B500290AD008782E
:1028A000002807D005487844FEF7F4F9002801D045
:1028B000002010BD0248784410BD00000E0A000040
:1028C000060A000010B591EA030F48BF83F00043E9
:1028D00000F16882841A71EB030C05D2121943EBE4
:1028E0000C03001B61EB0C01DFF824E14FEA1154EB
:1028F000A4EB135C1EEA430F18BF9EEA445F73D03B
:1029000023EA0E03DCF1200E21EA045143F4801384
:1029100032D322FA0CFE10EB0E0023FA0CFE41EB30
:102920000E01CCF1200E03FA0EFE10EB0E0051F159
:102930000001B1F5801FCCF1200E32D201EB045121
:1029400012FA0EF2BDE8104058BF7047401C38BF65
:102950005FEA420218BF7047002814BF20F0010050
:1029600041F100014FEA410313F5001F38BF7047E2
:10297000A1F1C04100F007BA012A43EB0302ACF118
:10298000200CDCF11F0E32BF4FF0000E23FA0CF3C7
:1029900010EB030041EB0451B4EB115FD0D0A1EB7D
:1029A000045101F5801149085FEA300001EB045140
:1029B0000ED350F1000038BF12FA0EFE08D1BDE868
:1029C0001040C9E7401C38BF5FEA4202CAD1C3E7E2
:1029D000BDE810404FEA410313F5001F38BF7047B0
:1029E000A1F1C04100F0CFB99EEA445F08D011EADE
:1029F0005E0FBDE8104004BF01F0004100207047A9
:102A0000BDE8104070B500F070F900BF64FBBE3E39
:102A10000000E0FF2DE9C04130B4DFF8A0C23CEA7D
:102A2000111418BF3CEA131400F0EC8081EA03058E
:102A30001CEA111444EAD57418BF1CEA131500F0FF
:102A4000C780A4EB05044FF0004545EAC12145EAE3
:102A5000C32341EA505143EA525304F17F7499422F
:102A600004F500344FEAC0204FEAC22208BF90426A
:102A700000F09C804FEA13650FF24016765D4FEA36
:102A8000134506FB05F7C7F1807706FB07F74FEA0A
:102A9000D737A7FB03687642C8F58038A7FB06CE78
:102AA00038BFA8F1010807FB08E64FF0000EA6FBAF
:102AB000028CE6FB03CEDCF1000CCEF1004E38BFF9
:102AC000AEF1010EA6FB0C584FF000074FF00005C9
:102AD000E6FB0E87A1FB08C6A0FB07CE16EB0E0691
:102AE00045F10005E1FB076515F1E04E7EBFA4F559
:102AF00080345FEA46066D4116F1800745F1000516
:102B00004FEA17274FEA066647EA0567A6F1DE4651
:102B1000B6F1805F4FEA15251FD9384624F0010C25
:102B200005EBC471BCF1FE6F01EB0C1102D8F0BCD7
:102B3000BDE8008124425CBF01F5801E9EEAC47F8F
:102B400002D4F0BCBDE80081244238D4F0BCA1F12D
:102B5000C041BDE8004100F016B94FEAD22242EA76
:102B600043524FEAD323A7FB02864FEAD02040EA24
:102B7000415007FB03661EEA0E0F4FEAD12105FB09
:102B8000026658BFA6EB0056B6EB00564FEA520E4F
:102B90004EEAC37E18EB0E0E56EB530EBDD518EB66
:102BA00002085E417F1C55F10005B6E74FF4801521
:102BB0004FF000074FF000064FF00008ADE7F0BC03
:102BC0004FF0000001F1C04101F00041BDE800817B
:102BD00011EA0C1F0CEA131500D00CE013EA0C1FCD
:102BE00000F025804FF00000F0BC81EA030101F005
:102BF0000041BDE80081F0BCBDE8004181EA03016D
:102C000000F0C1B8F0BCBDE8004170B500F06DF84F
:102C1000097EFC3E00F007B881EA03014FF0000096
:102C200001F00041704781EA030100F0ACB8F0BC4C
:102C3000BDE800414FF0000021497047FFFDFBF95E
:102C4000F7F5F4F2F0EEEDEBE9E8E6E4E3E1E0DEDF
:102C5000DDDBDAD8D7D5D4D3D1D0CFCDCCCBCAC851
:102C6000C7C6C5C4C2C1C0BFBEBDBCBBBAB9B8B778
:102C7000B6B5B4B3B2B1B0AFAEADACABAAA9A8A86B
:102C8000A7A6A5A4A3A3A2A1A09F9F9E9D9C9C9B39
:102C90009A999998979796959594939392919190E4
:102CA0008F8F8E8E8D8C8C8B8B8A89898888878775
:102CB0008685858484838382828181800000FF07EA
:102CC0000000F87FB0FA80F310FA03F10AD0C3F1E4
:102CD0001D0303F580634FEA41504FEA035202EBB4
:102CE000D12170474FF0000070470EF1020E2EF018
:102CF000030E5EF8046B364205D4012A43EB03054C
:102D000015F5001F12D8012841EB010C1CF5001F1E
:102D10000CD80ED14FEAD17C15F5001F0CEB4C0CF2
:102D20000CF1020C08BF4CEBD37C04E04FF0080C14
:102D300001E04FEAD37C0CEB4C0526FA05F606F0D1
:102D40000706B6F1040C06D20EEB860CBDE8704007
:102D50004CF0010C6047DFE80CF0090B02024FF069
:102D600000414FF00000A1F5002170BD194610464A
:102D7000012851EB010418BFD4F5001484BF0020D2
:102D800001F0004170BD0808A0F500114FEA3101C3
:102D90007047000010B591EA030F48BF83F000436D
:102DA0003FF598AD841A71EB030C07D212198CF021
:102DB000004C43EB0C03001B61EB0C01DFF8A4E1BA
:102DC0004FEA1154A4EB135C1EEA430F18BF9EEAAE
:102DD000445F00F0B08023EA6E03524221EA0451BE
:102DE000C3EB6E0338BF5B1EDCF1200E25D322FA45
:102DF0000CFE10EB0E0043FA0CFE41EB0E01CCF181
:102E0000200E03FA0EFE10EB0E0051F10001CCF182
:102E1000200E29D412FA0EF201EB0451BDE8104045
:102E200058BF7047401C1CBFB2F1004F70470028CC
:102E30000CBF491C20F00100704712EB020E43EB5F
:102E4000030218BF4FF0010E4EEA4202ACF1200C13
:102E5000DCF11E0E54D943FA0CFE10EB0E0051F1BA
:102E6000FF31CCF11E0ED5D50EF1010E12FA0EFE79
:102E7000404141EB010101EB445C5FEA5C5C10D92D
:102E800010EBDE7001EB045138BFBEF1004FBDE81E
:102E9000104018BF704700280CBF491C20F00100EB
:102EA000704730D24FEAD42C11F5001124F400649D
:102EB0001BD0B1FA81F20B3AA41AA41ED2F120035E
:102EC000914030FA03F31943904001EBCC71002C90
:102ED00001EB0451BDE81040A8BF704701F1C041AB
:102EE0004FF0000001F000417047B0FA80F310FA93
:102EF00003F100D110BDE41A173C4805C90AE4E704
:102F000001EB045110BD491001EB0451BDE8104024
:102F10004FEA300002E04FF0000170474A0008BF5E
:102F20000042F8D0B2F5001F28BF704701F0004101
:102F30004FF0000070479EEA445F07D011EA5E0F31
:102F4000BDE8104004BF002100207047BDE81040DC
:102F500070B5FFF7CAFE00BF40DFF63E83F00041C8
:102F6000104670470000E0FF4FF47F0C1CEAD012BF
:102F70001EBF1CEAD11392EA0C0F93EA0C0F00F06B
:102F8000858090EA010F48BF42F4807240F4000C43
:102F900041F400002CF07F4120F07F4000B58142D9
:102FA000A2EB03020FF2081CACEB504EC0F1000084
:102FB0009EF800E04FEA4E0E00FB0EFC38BF4900C1
:102FC0004FEA2C1C02F5FA020CFB0EF34FEACE1E60
:102FD0004FEA112C4FEAC1210EEB635E42EB224215
:102FE0000EFB0CFC4FEA1C5300FB03114FEA112CA3
:102FF0004FEA01310EFB0CFC4FEADC4C00FB0C11DC
:10300000C14228BF09184CEB03335DF804EB10EB09
:10301000410143EBC250B2F57C0F38BF704729D550
:1030200012F0F00F1CBF00F1C04000F000407047EC
:10303000008182838485868788898B8C8D8E8F9191
:103040009293959697999A9C9D9FA0A2A3A5A7A8B5
:10305000AAACAEB0B2B3B5B7B9BCBEC0C2C5C7C9E1
:10306000CCCED1D4D7D9DCDFE2E6E9ECF0F3F7FA45
:10307000FE0000004FEA400C0CF1807CBCF17E4F5A
:1030800028BF7047B0F1C04000F0A9B890EA010F26
:103090000CEAD11348BF42F48072624538BF6345E1
:1030A00007D213F47F0F16D080EA010000F0004031
:1030B000704710B500F04DF8097EFC3E00F005B8F1
:1030C00080EA010000F00040704780EA010000F053
:1030D000004000F084B812F47F0F04BF024870472C
:1030E00080EA010000F07BB80000C07FC10DD1F183
:1030F0009E0206DB4FEA002343F0004323FA02F06E
:103100007047004207D54FEA4001B1F1FE4F02D2AD
:103110004FF00000704710B500F01BF84992248072
:10312000002070476FEA200070470000B0FA80F37B
:1031300010FA03F2C3F19D030AD0D90501EB122066
:10314000530638BF704700F1010008BF20F00100AE
:1031500070470EF1020E2EF0030E5EF8044B24426F
:1031600004D44FEA4102B2F17F4F11D84FEA400335
:10317000B3F17F4F0CD80ED14FEAD07CB2F17F4F24
:103180000CEB4C0C0CF1020C08BF4CEBD17C04E0B6
:103190004FF0080C01E04FEAD17C0CEB4C0324FA11
:1031A00003F404F00704B4F1040C06D20EEB840C13
:1031B000BDE810404CF0010C6047DFE80CF0070858
:1031C00002024FF00040A0F5800010BD084642000A
:1031D00018BFD2F1807288BF00F0004010BDFF21FF
:1031E00041EAD050C0057047FDF7A6BA04000008B8
:1031F00000000000000000020001000010000000BC
:1032000002400000000000A0000000000540000097
:10321000000000C8000000000C4000000000409CBE
:1032200000000000194000000020BCBE00000000AB
:1032300034400000BFC91B8E00000004B5400000F0
:10324000504BCFD06607E2CF010000006C41000078
:103250003E8251AADFEEA73401000000D9420000EF
:10326000DCB5A0E23A301F97FFFFFFFFB445000036
:10327000FD25A0C8E9A3C14FFFFFFFFFFF3F0000EE
:103280000000008000000000FF3F00000000008000
:1032900000000000D03200080000002044000000C0
:1032A0006C01000814330008440000202C070000C3
:1032B000880100081C00000043000000F8FFFFFF29
:1032C0000C0000000E0000000F0000002E000000A7
:1032D00000A24A04000000000000000001020304F4
:1032E00006070809000000000000000000000000C0
:1032F0000000010203040102030406070809020496
:1033000006080000000000000000000000000000AF
:0433100000000000B9
:04000005080001F9F5
:00000001FF
